:020000040800F2
:1000000068040020010100082F0D0008910B000872
:100010002D0D00086D010008D10D00080000000042
:10002000000000000000000000000000330D000888
:100030006F01000800000000310D0008350D0008B8
:100040001B0100081B0100081B0100081B01000820
:100050001B0100081B0100081B0100081B01000810
:100060001B0100081B0100081B0100081B01000800
:100070001B0100081B0100081B0100081B010008F0
:100080001B0100081B0100081B0100081B010008E0
:100090001B0100081B0100081B0100081B010008D0
:1000A0001B0100081B0100081B0100081B010008C0
:1000B0001B0100081B0100081B0100081B010008B0
:1000C0001B0100081B0100081B0100081B010008A0
:1000D0001B0100081B0100081B0100081B01000890
:1000E0001B0100081B0100081B010008DFF80CD0F1
:1000F00000F02AF800480047110E000868040020AC
:100100000648804706480047FEE7FEE7FEE7FEE7B1
:10011000FEE7FEE7FEE7FEE7FEE7FEE7890D0008E3
:10012000ED000008D2B201E000F8012B491EFBD21D
:1001300070470022F6E710B513460A4604461946F2
:10014000FFF7F0FF204610BD064C074D06E0E068C3
:1001500040F0010394E8070098471034AC42F6D30E
:10016000FFF7C8FF240F0008440F0008FEE77047A0
:100170007047000070B5044600F008F90546601CA1
:1001800002D004480078044400F000F9401BA0426B
:10019000FAD370BD040000202DE9F84FDFF8B891C4
:1001A000002409F1040A0AF1040B23460F270BF17E
:1001B000040EC9E00125A5402A40AA427DD1674E20
:1001C000D1F804C0ACEB0608B44532D014DCBCF165
:1001D000030F3AD009DCBCF1000F2AD0BCF1010FAB
:1001E0001CD0BCF1020F31D11DE0BCF1110F17D0B2
:1001F000BCF1120F2AD119E0B8F5881F19D006DC1E
:10020000B8F5803F15D0B8F5801F1FD111E0B8F5C3
:10021000001F0ED0B8F5041F18D10AE0CB6815E016
:10022000CB681B1D12E0CB6808330FE0CB680C33A2
:100230000CE08B682BB1012B4FF0080303D0456114
:1002400004E0042302E0056100E00023FF2A01D856
:10025000064601E000F104064FEA840501D9A5F144
:100260002005D6F8008007FA05FC28EA0C0803FAF6
:1002700005F548EA0508C6F800804D68ED0062D52E
:10028000374DAE6946F00106AE61AD6924F0030654
:1002900005F001050095334D06EB050CDCF8085020
:1002A000A607360F07FA06F825EA0805DFF8B88032
:1002B000404503D14FF0000817E044E0DFF8AC8080
:1002C000404502D14FF001080FE0DFF8A48040451F
:1002D00002D14FF0020808E0DFF89880404502D1D3
:1002E0004FF0030801E04FF0040808FA06F848EA66
:1002F0000508CCF808804D68D9F80060ED034D463C
:1003000001D5164300E096432E604D68DAF8006090
:10031000AD03554601D5164300E096432E604D6867
:10032000DBF80060ED025D4601D5164300E0964320
:100330002E604D68DEF80060AD02754601D51643AB
:1003400000E096432E60641C0D682A46E5407FF469
:1003500031AFBDE8F88F000000040140000011102B
:10036000001002400000014000080140000C014064
:1003700000100140001401408068084000D00120B6
:1003800070470AB1016170470904FBE701488068C2
:10039000704700000400002070B504001BD094F8E2
:1003A0003D00002520B984F83C50204600F0AEF80E
:1003B000242084F83D002068016821F001010160DB
:1003C00000F0FCF94D4A6168914201D84C4900E0C7
:1003D0004C49884201D2012070BD4B492368B0FBD3
:1003E000F1F15E6826F03F060E435E60636893425B
:1003F00006D94FF4967359434FF47A73B1FBF3F176
:100400002368491C1E6A26F03F0631431962616861
:10041000914210D84900401EB0FBF1F2521CC2F3C9
:100420000B02042A01D2042022E0B0FBF1F0401CB0
:10043000C0F30B001CE0A368F3B301EBC10202EBB5
:100440000116421EB2FBF6F2521C42F48042120523
:1004500049D093B301EBC10202EB0111401EB0FB86
:10046000F1F0401CC0F30B0040F4804040F4004029
:100470002168CA694CF6FF739A431043C861D4E9F6
:100480000701084321680A6822F0C002104308608F
:10049000D4E9030101432068826848F2FF339A439C
:1004A00011438160D4E9050108432168CA6822F03C
:1004B000FF021043C86001E00EE016E0206801680A
:1004C00041F0010101602564202084F83D0025638E
:1004D00084F83E50002070BD01EB4106421EB2FB85
:1004E000F6F2521CB3E70120C2E701EB4101401EC6
:1004F000B0FBF1F0401CC0F30B00B7E7A086010091
:1005000080841E0000093D0040420F0010B586B0F7
:1005100000210091019102910391006813498842E2
:1005200022D1134CA06940F00800A061A06969467F
:1005300000F0080004904FF44070009012200190E9
:10054000032003900B48FFF727FE0B48416841F05A
:10055000E06141F002014160E06940F40010E061B7
:10056000E06900F40010049006B010BD0054004093
:1005700000100240000C0140000001400248816868
:10058000027811448160704704000020074810B5CC
:10059000016841F010010160032000F067F80020BD
:1005A00000F006F800F024F8002010BD0020024002
:1005B00070B50D4D04464FF47A712878B1FBF0F018
:1005C0000A490968B1FBF0F000F0CEFA48B9102CE6
:1005D00007D200222146501E00F028F800206C604F
:1005E00070BD012070BD000004000020100000203C
:1005F0000C4808B5816941F001018161816901F010
:1006000001010091C16941F08051C161C06900F0F0
:10061000805000900448416821F0E06141F0007191
:10062000416008BD0010024000000140F0B40E4BD4
:100630001B680C46C3F30223C3F10705042D00D940
:100640000425191D072901D2002300E0DB1E012625
:1006500006FA05F1491E214099409E40761E16403B
:100660003143F0BC00F0B5BB0CED00E0064900F0F2
:10067000070208684FF6FF03184040EA0220034AC9
:1006800010430860704700000CED00E00000FA0520
:100690002DE9F0470F46050061D0434E306800F069
:1006A0000700B84209D2306820F0070038433060B4
:1006B000306800F00700B84251D128683B4C8107F0
:1006C00012D5400703D5606840F4E0606060287888
:1006D000000703D5606840F4605060606068A968F6
:1006E00020F0F000084360602878C00728D06868D0
:1006F000012810D02168022810D0890700292EDA9D
:10070000616821F0030101436160FFF73FFE80460D
:1007100041F288390DE021688903EFE78901EDE7AF
:10072000FFF734FEA0EB0801494502D90320BDE8DC
:10073000F0876068696800F00C00B0EB810FEFD1C2
:10074000306800F00700B8420BD9306820F007008D
:1007500038433060306800F00700B84201D0012013
:10076000E5E72878400705D56068E96820F4E0608F
:10077000084360602878000706D56068296920F47E
:10078000605040EAC100606000F028F86168084AE3
:10079000C1F30311515CC84006490860064800686F
:1007A000FFF706FF0020C2E70020024000100240D1
:1007B0000C0F000810000020080000200448054924
:1007C00000684968044AC1F30221515CC84070477F
:1007D00010000020001002401C0F000812A185B07C
:1007E0000FC98DE80F0014A0144A006804905168E6
:1007F000134801F00C03042B10D0082B0ED1C1F3C9
:100800008343C9031DF803000AD5516804AAC1F344
:100810004041515C0A4A5043B0FBF1F005B07047CB
:1008200008494843FAE700000203040506070809DF
:100830000A0B0C0D0E0F10100102000000100240F8
:1008400000127A0000093D002DE9F84F040070D035
:100850002078C04DC00749D06868C0F381000128E6
:1008600007D06868C0F38100022809D16868C00316
:1008700006D52868800339D560680028E7D035E0C0
:100880006068B0F5803F0BD010B1B0F5A02F11D04B
:10089000286820F480302860286820F4802002E056
:1008A000286840F480302860606890B1FFF76EFDE2
:1008B00006460AE0286840F480202860F0E700BF80
:1008C000FFF764FD801B642873D828688003F7D580
:1008D0000CE0FFF75BFD064605E000BFFFF756FDA5
:1008E000801B6428F0D828688003F7D420789A4EBB
:1008F00080074FF001094FF0000839D5686810F003
:100900000C0F07D06868C0F38100022809D168681D
:10091000C00306D42868800714D52069012808D1AF
:1009200010E02069B0B1C6F80090FFF72FFD074630
:1009300005E00AE1FFF72AFDC01B0228C4D8286899
:100940008007F7D52868616920F0F80040EAC10007
:1009500028600DE0C6F80080FFF718FD074604E0A8
:10096000FFF714FDC01B022823D828688007F7D49E
:10097000207800072CD57948A169D9B1C0F800903A
:10098000FFF704FD074604E0FFF700FDC01B022847
:100990000FD8686A8007F7D571484FF4FA5100689C
:1009A000B0FBF1F0009000BF0098411E0091FAD218
:1009B0000EE080E0C0F80080FFF7E8FC074604E0A6
:1009C000FFF7E4FCC01B022875D8686A8007F7D4DB
:1009D0002078400760D5E8690027C00008D4E8699E
:1009E00040F08050E861E869012700F080500090F5
:1009F0005C480168C90513D40168834641F48071DD
:100A00000160FFF7C3FC824606E000BFFFF7BEFCB3
:100A1000A0EB0A0064284ED8DBF80000C005F5D52D
:100A2000E06801280AD008B1052813D0286A20F010
:100A300001002862286A20F0040002E0286A40F0E1
:100A400001002862E06841F2883B98B1FFF79EFC04
:100A500082460BE0286A40F004002862EEE700BFFF
:100A6000FFF794FCA0EB0A0159455AD8286A800781
:100A7000F6D50CE0FFF78AFC824605E0FFF786FC1E
:100A8000A0EB0A0159454CD8286A8007F6D41FB15B
:100A9000E86920F08050E861E06988B36968C1F3D3
:100AA0008101022944D00228C6F8608004D0FFF7F3
:100AB0006DFC044638E034E0FFF768FC074604E0CC
:100AC000FFF764FCC01B02282BD828688001F7D4EC
:100AD000206AB0F5803F05D16868A16820F4003035
:100AE00008436860D4E908010843696821F4741177
:100AF00008436860C6F86090FFF748FC044606E0CB
:100B000025E000BFFFF742FC001B022809D8286837
:100B10008001F7D51BE000BFFFF738FC001B02285F
:100B200002D90320BDE8F88F28688001F4D40EE0D4
:100B30000128F7D06868226A00F48031914204D11C
:100B4000616A00F47010884201D00120EAE70020B9
:100B5000E8E70000001002400000424280044242E8
:100B6000100000200070004010B5401EB0F1807FE2
:100B700001D3012010BD4FF0E02460610F21601708
:100B800000F027F90020A06107202061002010BD9F
:100B9000FEE700002DE9FF4107460068016821F0EB
:100BA00001010160112001900120029003203F4CBF
:100BB0004FF480750390694600952046FFF7ECFAE4
:100BC000012229462046FFF7DCFB661569462046D0
:100BD0000096FFF7E1FA012231462046FFF7D1FBEC
:100BE00000E000BF29462046FFF7C6FB0128F8D1E8
:100BF00000E000BF31462046FFF7BEFB0128F8D1D8
:100C0000002231462046FFF7BCFB00E000BF314622
:100C10002046FFF7B1FB0028F8D1002229462046E4
:100C2000FFF7AFFB00E000BF29462046FFF7A4FB1B
:100C30000028F8D1012229462046FFF7A2FB00E058
:100C400000BF29462046FFF797FB0128F8D1012273
:100C500031462046FFF795FB00E000BF31462046B5
:100C6000FFF78AFB0128F8D11220CDE90050694630
:100C70002046FFF791FA694620460096FFF78CFA66
:100C80003868016841F40041016000BF38680168BC
:100C900021F40041016000BF3868016841F00101A2
:100CA00001603846FFF778FBBDE8FF81000C01408A
:100CB0000D4808B5816941F020018161816901F029
:100CC00020010091816941F004018161816901F095
:100CD00004010091816941F008018161806900F09F
:100CE0000800009008BD0000001002400D4810B53B
:100CF0000B4901600C49416000214FF48042816042
:100D0000C0E9031241618161C1610162FFF744FBE7
:100D1000002803D0BDE81040FFF72ABA10BD00003C
:100D20000054004014000020A0860100FEE7704738
:100D300070477047FFF722BC30B58FB02821684656
:100D4000FFF7F7F914210AA8FFF7F3F901210804C6
:100D5000CDE900100024029402250491CDE907504A
:100D60004FF4E01009906846FFF76EFD0F20CDE9C3
:100D70000A056802CDE90C4002210AA80E94FFF78B
:100D800087FC0FB030BD00000D48016841F0010143
:100D9000016041680B4A1140416001680A4A1140F4
:100DA0000160016821F480210160416821F4FE01A5
:100DB00041604FF41F0181600449C003086070471F
:100DC000001002400000FFF8FFFFF6FE08ED00E013
:100DD000FEE70907090E002804DB00F1E02080F897
:100DE0000014704700F00F0000F1E02080F8141D9F
:100DF000704702E008C8121F08C1002AFAD17047E4
:100E00007047002001E001C1121F002AFBD170478A
:100E1000084800210180FFF7B9FBFFF78DFFFFF7BE
:100E200047FFFFF763FF00BF00F006F86420FFF7FD
:100E3000A1F9F9E700000020324830B40022304B1D
:100E4000016803E01446521C9C4249D88C69E44373
:100E5000A407F7D50A6822F400620A6001680A68EC
:100E600042F480620A6001680A6842F480720A6093
:100E70000022016803E01446521C9C4230D84C69A1
:100E8000E443E407F7D14A6981220A61002201683C
:100E900003E01446521C9C4222D84C69E443A40748
:100EA000F7D44A698A690A6842F400720A6000222B
:100EB000016803E01446521C9C4211D84C69E4437B
:100EC0006406F7D40C69104A14700C6824F480642A
:100ED0000C600021006807E00C46491C9C4203D9C5
:100EE00030BC0848FFF756BE4469E4436406F3D4B7
:100EF00001695170016841F40071016030BC7047B4
:100F0000A086010014000020000000200000000066
:100F100000000000010203040607080900000000A9
:100F200001020304440F0008000000201400000028
:100F3000F20D0008580F00081400002054040000AF
:100F4000020E000800000000010000001000000078
:080F5000000000000024F40081
:04000005080000ED02
:00000001FF
